:020000040000FA
:09000000020C3B020B9922322292
:10000B00020E4CE5915404FF5391FB75A71075FE3E
:0E001B0060E4F5A7439110439104EF42912257
:10002B00020CCA85A708120D4E120E80120E8D12ED
:10003B000E39120006120E9A120EAE12005F120E3D
:10004B0070120E2012000E120EA4120EBC120EB560
:10005B008508A722E4F5A7F5A9E5A930E7FB75A963
:07006B0003E5A930E7FB22C9
:1000730002000712002E120E5F852350852451D2F1
:10008300B2D2B3D2B1C286C287D291D292D201E5A3
:10009300251470030205A514700302073B147003B3
:1000A3000207AA1470030208A5240460030208F2DD
:1000B300900000E0F8A3E0F9A3E0FAA3E0FBC3E5B6
:1000C300249BFFE5239AFEE52299FDE52198FCE4B4
:1000D3007B64FAF9F8C3120D9940030205A0AF241B
:1000E300AE23AD22AC21900000120DBDE53A14B44D
:1000F300080040030205A090010875F003A4C5831E
:1001030025F0C583730202740201E90201B50201FD
:100113002E0201620201200202A20202B6200103A2
:100123000205A0C201753A0302037990001EE0F8AC
:10013300A3E0F9A3E0FAA3E0FBC3E5249BFFE523D7
:100143009AFEE52299FDE52198FCE47BC8FAF9F8CB
:10015300C3120D9940030205A0753A0502053C3010
:100163000108C201753A060201F190001EE0F8A3EE
:10017300E0F9A3E0FAA3E0FBC3E5249BFFE5239AA0
:10018300FEE52299FDE52198FCE47B207A4EF9F8FF
:10019300C3120D99500B209008120DF7C2010205EE
:1001A3009D2090030205A0120DF7753A06C20102C5
:1001B30005A090001EE0F8A3E0F9A3E0FAA3E0FB9A
:1001C300C3E5249BFFE5239AFEE52299FDE52198EB
:1001D300FCE47BC8FAF9F8C3120D9940030205A0A9
:1001E300753A0202053C30010CC201753A017F02E7
:1001F3007E000202B090001EE0F8A3E0F9A3E0FA4B
:10020300A3E0FBC3E5249BFFE5239AFEE52299FDCA
:10021300E52198FCE47B207A4EF9F8C3120D99503E
:1002230005209002802F90001EE0F8A3E0F9A3E0E0
:10023300FAA3E0FBC3E5249BFFE5239AFEE522999D
:10024300FDE52198FCE47B987A3AF9F8D3120D99ED
:10025300400E30900B120DF7C201753A080205A04B
:100263002090030205A0120DF7753A01C2010205A1
:10027300A02001030205A0C201E53B64016011E572
:100283003B6402600BE53B64056005E53BB4040396
:10029300120DC9753A04E4FFFE120DFB02053C2062
:1002A30001030205A0C201753A04E4FFFE120DFB2F
:1002B3000205A0E539B40D0040030205A09002C772
:1002C300F82828730202EE0202FC020330020374D0
:1002D3000203830203B702043302044102047502DA
:1002E30005A002050102050E02054CC20175390184
:1002F300E4FFFE120DFB02053C90001EE0F8A3E0B4
:10030300F9A3E0FAA3E0FBC3E5249BFFE5239AFEF0
:10031300E52299FDE52198FCE47BC8FAF9F8C312BC
:100323000D9940030205A075390202053C90001E99
:10033300E0F8A3E0F9A3E0FAA3E0FBC3E5249BFF05
:10034300E5239AFEE52299FDE52198FCE47B207ADA
:100353004EF9F8C3120D995009209006120DF502BB
:10036300059D2090030205A0120DF77539030205C0
:100373003CC2017539047F017E00120DFB02053C6E
:1003830090001EE0F8A3E0F9A3E0FAA3E0FBC3E5C5
:10039300249BFFE5239AFEE52299FDE52198FCE4E1
:1003A3007BC8FAF9F8C3120D9940030205A0753909
:1003B3000502053C90001EE0F8A3E0F9A3E0FAA3D0
:1003C300E0FBC3E5249BFFE5239AFEE52299FDE5C7
:1003D3002198FCE47B207A4EF9F8C3120D9950055D
:1003E300209002802F90001EE0F8A3E0F9A3E0FA2A
:1003F300A3E0FBC3E5249BFFE5239AFEE52299FDD9
:10040300E52198FCE47B987A3AF9F8D3120D9940E8
:100413000E30900B120DF7C20175390A0205A020A8
:1004230090030205A0120DF7753906C2010205A05B
:10043300C201753907E4FFFE120DFB02053C900073
:100443001EE0F8A3E0F9A3E0FAA3E0FBC3E5249BD5
:10045300FFE5239AFEE52299FDE52198FCE47BC89C
:10046300FAF9F8C3120D9940030205A07539080281
:10047300053C90001EE0F8A3E0F9A3E0FAA3E0FB3B
:10048300C3E5249BFFE5239AFEE52299FDE5219828
:10049300FCE47B207A4EF9F8C3120D9950062090A4
:1004A3000302057B90001EE0F8A3E0F9A3E0FAA3A2
:1004B300E0FBC3E5249BFFE5239AFEE52299FDE5D6
:1004C3002198FCE47B987A3AF9F8D3120D99400EFF
:1004D30030900B120DF7C201E4F53902059D20900F
:1004E300030205A0120DF7E4F539AF24AE23AD22C4
:1004F300AC2190001E120DBD753A060205A0C20183
:1005030075390BE4FFFE120DFB802E90001EE0F800
:10051300A3E0F9A3E0FAA3E0FBC3E5249BFFE523F3
:100523009AFEE52299FDE52198FCE47BC8FAF9F8E7
:10053300C3120D99506775390CAF24AE23AD22ACAD
:100543002190001E120DBD805490001EE0F8A3E020
:10055300F9A3E0FAA3E0FBC3E5249BFFE5239AFE9E
:10056300E52299FDE52198FCE47B207A4EF9F8C356
:10057300120D99500E20900B120DF5753A07E4F504
:1005830039801A309017120DF7E4F539AF24AE23F2
:10059300AD22AC2190001E120DBD753A0705250250
:1005A3000092900000E0F8A3E0F9A3E0FAA3E0FBD7
:1005B300C3E5249BFFE5239AFEE52299FDE52198F7
:1005C300FCE47B64FAF9F8C3120D99400302073681
:1005D300AF24AE23AD22AC21900000120DBDE53B4C
:1005E300B4070040030207369005F2F82828730287
:1005F30006070206A10207000206BA02066D0206FA
:1006030038020728300319C203753B05E4FFFE12C5
:100613000DD0AF24AE23AD22AC21900022120DBD2C
:10062300200503020736C205753B047F017E0012D5
:100633000DD00206F0900022E0F8A3E0F9A3E0FA5F
:10064300A3E0FBC3E5249BFFE5239AFEE52299FD86
:10065300E52198FCE47BE87A03F9F8C3120D99408D
:1006630003020736753B010206F0900022E0F8A36F
:10067300E0F9A3E0FAA3E0FBC3E5249BFFE5239A9B
:10068300FEE52299FDE52198FCE47BE87A03F9F87D
:10069300C3120D994003020736753B02804F3003A6
:1006A30002805D2093030207367F027E00120DD085
:1006B300753B06C203807C900022E0F8A3E0F9A317
:1006C300E0FAA3E0FBC3E5249BFFE5239AFEE522C2
:1006D30099FDE52198FCE47BC8FAF9F8C3120D995A
:1006E3005051E4F53B7F02FE120DD0C203AF24AE9E
:1006F30023AD22AC21900022120DBD8036300304BD
:10070300C203800530050BC205753B037F037E00E2
:10071300801E30931E7F027E00120DD0753B06C2F1
:1007230003C205800E30030BC203753B05E4FFFED5
:10073300120DD00525020092900008E0F8A3E0F91D
:10074300A3E0FAA3E0FBC3E5249BFFE5239AFEE5C0
:100753002299FDE52198FCE47B0AFAF9F8C3120D0E
:1007630099503FA2A49202200206E5266002D2011C
:10077300A202E433F526A2A59204200411E52C601D
:100783000DE53A64016005E53AB40202D203A2041E
:10079300E433F52CAF24AE23AD22AC219000081234
:1007A3000DBD0525020092900004E0F8A3E0F9A333
:1007B300E0FAA3E0FBC3E5249BFFE5239AFEE522D1
:1007C30099FDE52198FCE47B02FAF9F8C3120D992F
:1007D300503830900AE53A64076004C2B28008E5F5
:1007E3003A64076002D2B230930AE53B64066004C0
:1007F300C2B38008E53B64066002D2B3AF24AE23E4
:10080300AD22AC21900004120DBD90000CE0FCA3BE
:10081300E0FDA3E0FEA3E0C39524FFEE9523FEEDE8
:100823009522FDEC9521FCE47BE87A03F9F8C312E9
:100833000D99506920A141C2B1E53B64016005E512
:100843003BB40209E4F53B7F02FE120DD0E53A64A6
:10085300066027E53A64056021E53A6404601B7588
:100863003A04E4FFFE120DFBAF24AE23AD22AC210C
:1008730090001E120DBD8002D2B1E53AB40610E518
:100883003B64016005E53BB40205C203120DC9AF29
:1008930024AE23AD22AC2190000C120DBD05250220
:1008A3000092900010E0F8A3E0F9A3E0FAA3E0FBC4
:1008B300C3E5249BFFE5239AFEE52299FDE52198F4
:1008C300FCE47BF47A01F9F8C3120D99501CAF24B0
:1008D300AE23AD22AC21900010120DBDE53AB40752
:1008E30002B2B2E53BB40602B2B305250200927F21
:1008F300BF7E407DDF7C20AB4FAA4EA94DA84CC3E1
:10090300120D99701E854F43854E42854D41854C8E
:1009130040F54FF54EF54DF54C200107E53AB40689
:1009230002D2017F3F7EC07DDF7C20AB4FAA4EA960
:100933004DA84CC3120D99704B854F43854E42858C
:100943004D41854C40F54FF54EF54DF54C300103C7
:10095300020AECE53A64016003020AECD2013003B7
:1009630003020AECE53B64026015E53B6401600F9A
:10097300E53B64046009E53B64046003020AECD2CE
:1009830003020AEC7FFF7E007DDF7C20AB4FAA4E83
:10099300A94DA84CC3120D997035854F43854E421E
:1009A300854D41854C40F54FF54EF54DF54C3003E3
:1009B30003020AECE53B6003020AECE53A640160DA
:1009C30009E53A64026003020AECD203020AEC7FEF
:1009D3007F7E807DDF7C20AB4FAA4EA94DA84CC300
:1009E300120D99703D854F43854E42854D41854C8F
:1009F30040F54FF54EF54DF54C300303020AECE597
:100A03003B64016009E53B64026003020AECE53ADA
:100A130064016009E53A64026003020AECD203024E
:100A23000AEC7FEB7E147DDF7C20AB4FAA4EA94DF1
:100A3300A84CC3120D997034854F43854E42854DA2
:100A430041854C40F54FF54EF54DF54C300503020D
:100A53000AECE53B6003020AECE53A64016009E550
:100A63003A64026003020AECD205807D7FEF7E10B8
:100A73007DDF7C20AB4FAA4EA94DA84CC3120D9924
:100A83007029854F43854E42854D41854C40F54F36
:100A9300F54EF54DF54C200107E53AB40602D201B7
:100AA300200346E53B7042D203803E7F3D7EC27DFC
:100AB300DF7C20AB4FAA4EA94DA84CC3120D9970F1
:100AC30028854F43854E42854D41854C40F54FF572
:100AD3004EF54DF54C200107E53AB40102D2012051
:100AE3000307E53BB40102D203E4F52502009204B7
:100AF30021000000004200140000024A0000043CF0
:100B0300000000C802500000042700000000044C4D
:100B13000000000004400000000002440000013413
:100B2300000446000000000135000430000000000E
:100B3300012D00012500013600012601012C01C110
:100B430001C105C103013900C102C104C100C106CD
:100B5300013A01013B00440000000000004400048E
:100B6300000000004400080000000044000C0000E6
:100B730000004400100000000044001E00000000BC
:100B8300440022000000004400160000000044005E
:100B93001A0000000000C0E0C0D075D000C000C043
:100BA30001C004C005C006C00785452B7544007508
:100BB3004500758C3F758A1D0534E52BC39432407F
:100BC300117534FE752A00752900752800752700F4
:100BD3008055C3E534648094804034E53464809464
:100BE300A0502CE52BC39402403DE47F01FEFDFCA5
:100BF300741F9534F9F8120DAAE52A4FF52AE52951
:100C03004EF529E5284DF528E5274CF5278018C32F
:100C1300E534648094A0400F852A4F85294E8528AA
:100C23004D85274C753400D007D006D005D004D0AD
:100C330001D000D0D0D0E032120008787FE4F6D89B
:100C4300FD758153020C85020076E493A3F8E493C7
:100C5300A34003F68001F208DFF48029E493A3F8AC
:100C63005407240CC8C333C4540F4420C88340041E
:100C7300F456800146F6DFE4800B010204081020DD
:100C83004080900AF2E47E019360BCA3FF543F309E
:100C9300E509541FFEE493A360010ECF54C025E081
:100CA30060A840B8E493A3FAE493A3F8E493A3C839
:100CB300C582C8CAC583CAF0A3C8C582C8CAC583CA
:100CC300CADFE9DEE780BEC0E0C0F0C083C082C0F7
:100CD300D075D000C000C001C002C003C004C0056D
:100CE300C006C007E5242401F524E43523F523E4F5
:100CF3003522F522E43521F521AE50AF51AB07AAD9
:100D030006C3E5249BFFE5239AFEE5229400FDE557
:100D1300219400FCE47BE87A03F9F8C3120D99509F
:100D230008852350852451B2B175A710C2CFC2CE16
:100D3300D007D006D005D004D003D002D001D00014
:100D4300D0D0D082D083D0F0D0E032E4F5A775972D
:100D5300A5F50CF50BF50AF509E47F19FEFDFCABCF
:100D63000CAA0BA90AA809C3120D99501800E50C87
:100D73002401F50CE4350BF50BE4350AF50AE435EB
:100D830009F50980D4A2AF9207C2AF7597DE7597B4
:100D9300ADA20792AF22EB9FF5F0EA9E42F0E99DE8
:100DA30042F0E89C45F022E8600FEFC333FFEE33D7
:100DB300FEED33FDEC33FCD8F122ECF0A3EDF0A310
:100DC300EEF0A3EFF022753B037F037E00EE70216C
:100DD300EF601024FE601114601324027013C2919B
:100DE300C29222D291C29222D291D29222C291D2A3
:100DF3009222C2017F027E00EE7021EF601024FE7A
:100E0300601114601324027013C286D28722D28623
:100E1300C28722C286C28722D286D28722E5C854DD
:100E23000453C8FB75CFF075CE0D75CBF075CA0DA5
:100E330043C80442C822E4F5A743F30243F3104333
:100E4300F32075A72075CC0F22C0E00545E545705A
:100E5300020544758C3F758A1DD0E032758CD075C0
:100E63008AC6D28CD2A9D288D2A8D2AF22AF885355
:100E730088AFEF5440FEEF54104E42882275803FF6
:100E830075A4C043F10475D4CB2275A50643F201C2
:100E930043F20875D5FF22E4F5A775E34075E240F8
:100EA30022758E0D7589114388052275A71075C1AA
:100EB300102275E68075A8A32275E40243880122F7
:00000001FF
